S0140000737465706D6F746F72302E302E7372656395
S11300000C94D3000C94FB000C94FB000C94FB00A8
S11300100C94FB000C94FB000C94FB000C94FB0070
S11300200C94FB000C94FB000C94FB000C94FB0060
S11300300C94FB000C94FB000C94FB000C94FB0050
S11300400C948C060C94FB000C9430050C94FB006F
S11300500C94FB000C94FB000C94FB000C94FB0030
S11300600C94FB000C94FB004E414E494E495459EC
S1130070494E46CDCCCC3D0AD7233C17B7D138776F
S1130080CC2B329595E6241FB14F0A000020410085
S113009000C84200401C4620BCBE4CCA1B0E5AAECF
S11300A0C59D7400407A10F35A00A0724E180900DE
S11300B010A5D4E80000E87648170000E40B5402C9
S11300C00000CA9A3B000000E1F505000080969804
S11300D000000040420F000000A086010000001054
S11300E02700000000E80300000000640000000096
S11300F0000A00000000000100000000002C76D877
S113010088DC674F0823DFC1DFAE59E1B1B796E55C
S1130110E3E453C63AE651997696E8E6C28426EBC0
S1130120898C9B62ED407C6FFCEFBC9C9F40F2BAD3
S1130130A56FA5F490055A2AF75C936B6CF9676D6B
S1130140C11BFCE0E40D47FEF520E6B500D0ED90C0
S11301502E0300943577050080841E080000204E8D
S11301600A000000C80C333333330F986E12831126
S113017041EF8D2114893BE65516CFFEE6DB18D1FD
S1130180844B381BF77C1D901DA4BBE424203284CF
S1130190725E228100C9F124ECA1E53D27007C01B7
S11301A076061907660811241FBECFEFD8E0DEBF1C
S11301B0CDBF13E0A0E0B1E0EEE0FFE102C00590A6
S11301C00D92AE3BB107D9F723E0AEEBB3E001C02B
S11301D01D92AA3FB207E1F711E0C6EAD1E004C0DC
S11301E02297FE010E94EF0ACE39D107C9F70E9477
S11301F00F070C94850F0C94000087B117B8EAE739
S1130200F0E0808187688083ECE7F0E0808180649F
S113021080830895089560E98EEB93E00E94540270
S113022061E08EEB93E00E94790260E08EEB93E054
S11302300E94790263EE8EEB93E00E9479028EEBCA
S113024093E00E9496020895CF93DF9360E98EEBCA
S113025093E00E945402813029F060E08EEB93E039
S11302600E9479028EEB93E00E94960261E98EEB84
S113027093E00E945402813059F08EEB93E00E9487
S11302808B02C82F8EEB93E00E948B02D82F02C002
S1130290D0E0C0E08EEB93E00E9496022D2F30E078
S11302A0C9019C2B959587959595879595958795E7
S11302B095958795DF91CF910895CF93DF93EC01C6
S11302C00E940B012FEF89EF90E021508040904075
S11302D0E1F700C00000CE010E942401BC0180E0CF
S11302E090E00E94B50926EA3BE944E45BE30E94FE
S11302F06B0ADF91CF9108958EEB93E00E94500238
S113030008950895CF92DF92EF92FF920F931F9377
S1130310CF93DF936A017B01C0E5D2E000E010E0F7
S11303206991799189919991A70196010E9418097F
S113033088236CF5288139814A815B81C701B60124
S11303400E94180918161CF1000F111F000F111F2D
S1130350E801C052DE4F2091BF033091C0034091A9
S1130360C1035091C203C701B6010E94B30828819A
S113037039814A815B810E946B0AF801E059FE4F82
S113038020813181428153810E94B40803C00F5FF0
S11303901F4FC6CFDF91CF911F910F91FF90EF9028
S11303A0DF90CF900895CB01BA012BE33FED4FE2EC
S11303B05FE30E94B3086093BF037093C00380930C
S11303C0C1039093C2030895CF92DF92EF92FF92FC
S11303D00F931F93CF93DF939A01AB0160E070E01A
S11303E0CB010E94B3086B017C0120E030E0A9013D
S11303F00E941809811117C0209170013091710178
S11304004091720150917301C701B6010E94B30873
S11304102091E0013091E1014091E2015091E3012A
S11304200E941C0934C0C0E0D1E000E010E0299132
S1130430399149915991C701B6010E94180988233D
S11304401CF5288139814A815B81C701B6010E946C
S1130450670A8823CCF0000F111F000F111FF80149
S1130460E059FE4F2081318142815381C701B60199
S11304700E94B308F801E052FE4F2081318142818D
S113048053810E941C0903C00F5F1F4FD0CFDF911F
S1130490CF911F910F91FF90EF90DF90CF9008952F
S11304A088E48093B8000895ECEBF0E0108284EACD
S11304B0808380818823ECF78091B900887F88301D
S11304C0A1F46093BB0084E88093BC00ECEBF0E003
S11304D080818823ECF79091B900987F983139F0A6
S11304E081E0903429F480E0089581E0089580E06B
S11304F008956093BB0084E88093BC00ECEBF0E0CB
S113050080818823ECF79091B900987F81E098323C
S113051009F480E0089584EC8093BC00ECEBF0E0F7
S113052080818823ECF78091BB00089584E980934F
S1130530BC0008950E946B080895CF93DF93CDB754
S1130540DEB7A8970FB6F894DEBF0FBECDBF8130DB
S1130550910589F483E1EDECF2E0DE01119601905E
S11305600D928A95E1F7BE016F5F7F4F87ED93E0AF
S11305700E9483083AC08230910589F488E2E0EE53
S1130580F2E0DE01119601900D928A95E1F7BE0129
S11305906F5F7F4F87ED93E00E94830826C083300E
S11305A0910589F48EE0E8E0F3E0DE011196019014
S11305B00D928A95E1F7BE016F5F7F4F87ED93E05F
S11305C00E94830812C0049781F48DE1E6E1F3E010
S11305D0DE01119601900D928A95E1F7BE016F5FDD
S11305E07F4F87ED93E00E948308A8960FB6F89496
S11305F0DEBF0FBECDBFDF91CF910895CF93DF93C0
S1130600CDB7DEB7CF57D1090FB6F894DEBF0FBE12
S1130610CDBF81E2E3E3F3E0DE01119601900D9298
S11306208A95E1F789E1E4E5F3E0DE01DE960190E5
S11306300D928A95E1F78CE1EDE6F3E0DE01929606
S113064001900D928A95E1F783E1E9E8F3E0DE0198
S1130650A95ABF4F01900D928A95E1F789E0ECE920
S1130660F3E0DE01A958BF4F01900D928A95E1F79E
S11306708DE0E5EAF3E0DE01A659BF4F01900D924B
S11306808A95E1F7BE016F5F7F4F87ED93E00E948B
S11306908308BE01625C7F4F87ED93E00E9483086C
S11306A0BE016E5D7F4F87ED93E00E948308BE011B
S11306B0695A7F4F87ED93E00E948308BE01695811
S11306C07F4F87ED93E00E948308BE0166597F4FF8
S11306D087ED93E00E948308C158DF4F0FB6F8946A
S11306E0DEBF0FBECDBFDF91CF9108950E94FE0201
S11306F045E050E060E070E088ED93E00E94400740
S11307000895BC0188ED93E00E9490072FEF85EADD
S11307109EE0215080409040E1F700C0000088ED49
S113072093E00E945D080895CF92DF92EF92FF92CA
S11307300F931F93CF93DF93CDB7DEB72D970FB6EB
S1130740F894DEBF0FBECDBF00E110E0C12CD12C68
S1130750760185ED93E00E945D019B01AC01C70128
S1130760B6010E94B4086B017C0101501109011506
S1130770110579F720E030E040E85DE30E946B0A60
S11307806B017C018E010F5F1F4F23E046E00E9446
S1130790330B64EC72E087ED93E00E948308B801A8
S11307A087ED93E00E948308B701A60184ED93E0EE
S11307B00E94820123E046E00E94330B84E692E427
S11307C0A0E08B879C87AD87BE01655F7F4F87ED77
S11307D093E00E948308B80187ED93E00E948308A8
S11307E0C701B6012D960FB6F894DEBF0FBECDBF7C
S11307F0DF91CF911F910F91FF90EF90DF90CF90F9
S11308000895BC0188ED93E00E9490072FEF83ECDC
S113081099E0215080409040E1F700C0000088ED4D
S113082093E00E945D082FEF83ED90E32150804018
S11308309040E1F700C000000E9494030895BC01B9
S113084088ED93E00E9490072FEF83EC99E021500C
S113085080409040E1F700C0000088ED93E00E94E2
S11308605D082FEF83ED90E3215080409040E1F745
S113087000C000000E949403089585ED93E00E9457
S11308805D010895CF92DF92EF92FF92CF93DF93B1
S1130890CDB7DEB72C970FB6F894DEBF0FBECDBF31
S11308A00E943D046B017C0123E333E343E35FE3F4
S11308B00E94670A1816FCF423E333E343E35FE37F
S11308C0C701B6010E94B3082FE832EC45EF5CE3A0
S11308D00E941C0920E030E040E850E40E946B0ACA
S11308E090580E948409CB010E94810304C08CEFBC
S11308F09FEF0E9481030E943D0423E333E343E31B
S11309005FE30E94670A181694F30E943D04AB014A
S1130910BC0184ED93E00E94D3010E9494038CE017
S1130920E2EBF3E0DE01119601900D928A95E1F776
S1130930BE016F5F7F4F87ED93E00E9483082C9682
S11309400FB6F894DEBF0FBECDBFDF91CF91FF90FD
S1130950EF90DF90CF9008958F929F92AF92BF92C5
S1130960CF92DF92EF92FF926B017C010E943D04D3
S11309704B015C012AE939E949E15FE3C701B601AA
S11309800E94180988230CF460C020E030E048EE8F
S113099051E4C701B6010E94670A18160CF455C049
S11309A0A7019601C501B4010E94180988233CF5EA
S11309B0A5019401C701B6010E94B3082FE832ECE7
S11309C045EF5CE30E941C0920E030E040E850E47D
S11309D00E946B0A0E948409CB010E94810304C017
S11309E084E090E00E9481030E943D049B01AC01DD
S11309F0C701B6010E94670A181694F326C0A50120
S1130A009401C701B6010E94B3082FE832EC45EF08
S1130A105CE30E941C0920E030E040E850E40E94BE
S1130A206B0A0E948409CB010E94810304C08CEFED
S1130A309FEF0E9481030E943D049B01AC01C7010A
S1130A40B6010E941809882394F30E949403FF902E
S1130A50EF90DF90CF90BF90AF909F908F900895CC
S1130A601F920F920FB60F921124CF92DF92EF9242
S1130A70FF920F931F932F933F934F935F936F9323
S1130A807F938F939F93AF93BF93EF93FF93CF93F2
S1130A90DF93CDB7DEB72A97DEBFCDBFE6ECF0E03B
S1130AA020812083293081F02093C9038091C703DA
S1130AB09091C803FC01E653FC4F20830196909368
S1130AC0C8038093C703F3C09091C903892F8F7D16
S1130AD0813471F481E090E00E949D0281E0809372
S1130AE0C6031092C5031092C4031092C3033CC002
S1130AF0823471F482E090E00E949D0281E0809350
S1130B00C5031092C6031092C4031092C3032CC0F1
S1130B10823571F483E090E00E949D0281E080932D
S1130B20C4031092C5031092C6031092C3031CC0E1
S1130B30843571F484E090E00E949D021092C40315
S1130B401092C5031092C60381E08093C3030CC0C6
S1130B509B3151F40E94FE021092C5031092C60309
S1130B601092C4031092C3038091C603882361F1D9
S1130B708091C9038F7D873591F40E943D0420E064
S1130B8030E040E850E40E94180988230CF089C042
S1130B908091C2029091C3020E94010482C08335F5
S1130BA009F07FC00E943D042AE939E949E15FE385
S1130BB00E94670A18160CF074C08091C0029091CC
S1130BC0C1020E941F046DC08091C503882379F17E
S1130BD08E010F5F1F4F22E044E0C12CD12C76011F
S1130BE0C701B6010E94330BB80187ED93E00E9460
S1130BF083082DEC3CEC4CE45FE3C701B6010E9492
S1130C001809882354F026E636E646E850E4C7017E
S1130C10B6010E94670A18162CF483E090E00E9443
S1130C209D023FC084E090E00E949D023AC0809102
S1130C30C403882319F00E94420433C08091C30383
S1130C40882379F18AEC93E00E94540B6B017C01B8
S1130C5020E030E0A9010E94670A882314F120E013
S1130C6030E048EE51E4C701B6010E941809181695
S1130C70C4F0B701A60184ED93E00E94E4016B0186
S1130C807C018E010F5F1F4F22E044E00E94330B72
S1130C90B80187ED93E00E948308C701B6010E9462
S1130CA0AC041092CA031092C8031092C7032A9688
S1130CB00FB6F894DEBF0FBECDBFDF91CF91FF9189
S1130CC0EF91BF91AF919F918F917F916F915F91C0
S1130CD04F913F912F911F910F91FF90EF90DF90D3
S1130CE0CF900F900FBE0F901F90189588ED93E052
S1130CF00E941E0787ED93E00E946B0886ED93E047
S1130D000E94FD0085ED93E00E940A0184ED93E0CA
S1130D100E948101089508951F920F920FB60F92B9
S1130D2011242F933F934F935F936F937F938F93EC
S1130D309F93AF93EF93FF93E091EC03F091ED0356
S1130D40E058FF4FF093ED03E093EC03E93E83E0BA
S1130D50F80768F12091EE033091EF034091F0031E
S1130D605091F1036091F2037091F3038091F403C5
S1130D709091F503A1E00E94F30AE85EF340E93E96
S1130D80A3E0FA07B8F72093EE033093EF03409300
S1130D90F0035093F1036093F2037093F303809391
S1130DA0F4039093F503F093ED03E093EC03FF91C8
S1130DB0EF91AF919F918F917F916F915F914F913F
S1130DC03F912F910F900FBE0F901F901895F8949C
S1130DD02091EE033091EF034091F0035091F10321
S1130DE06091F2037091F3038091F4039091F50301
S1130DF07894089585B5826085BDEEE6F0E0808143
S1130E0081608083789408958AB11AB8579A5F9A5A
S1130E100895E1E8F0E080818760808308950E946E
S1130E2004070E940907789486EF93E00E947603F2
S1130E30FFCF86EF93E00E949A020895FC01158685
S1130E4014861382128211821082108A118A128AE5
S1130E50138A80ED97E0918780878FE084B985B10C
S1130E6015B885B115B885B115B885B115B884E044
S1130E7090E09387828787EF93E00E94FA060895B3
S1130E80CF92DF92EF92FF92CF93DF93EC016A014E
S1130E907B0128853985442737FD4095542F60E62A
S1130EA07AEE80E090E00E94CE0ACA01B901A7015F
S1130EB096010E94CE0A2C833D834E835F83DF918B
S1130EC0CF91FF90EF90DF90CF900895613071053E
S1130ED091F01CF4672B41F008956230710591F094
S1130EE063307105B1F0089585B115B885B115B8B1
S1130EF02B9A2A9A089585B115B885B115B8299AFF
S1130F002B9A089585B115B885B115B8289A299AF0
S1130F10089585B115B885B115B82A9A289A089507
S1130F202F923F924F925F926F927F928F929F92F5
S1130F30AF92BF92CF92DF92EF92FF920F931F93E3
S1130F40CF93DF9300D000D0CDB7DEB79C838B83E3
S1130F504B01772324F488249924861A970A9A82C9
S1130F6089821616170634F481E090E0AB81BC81C7
S1130F708D939C9377230CF083C0EB81FC811182C9
S1130F8010827EC087EF93E00E94E706AB81BC81AC
S1130F905096ED90FD900D911C91539727013801C7
S1130FA0770C4408542C3201AE2CBF2CC02ED12E09
S1130FB0E42CF42C042D142D0E94FF0AF22FE32FAD
S1130FC014960D911D912D913C91179718012901AB
S1130FD02F2F3E2FA22CB32CC42CD52CE12CF12C7A
S1130FE000E010E00E94080B68F287EF93E00E9493
S1130FF0E706EB81FC81208B318B428B538B808104
S11310009181019769F484859585019695878487F4
S11310102085318582179307D1F41586148617C06D
S1131020AB81BC811C968D919C911D97892B41F4B9
S113103018968D919C9119971D969C938E931C974D
S1131040EB81FC81848595850197958784878981C7
S11310509A8101979A838983AB81BC811C966D9197
S11310607C911D9763707078772334F46150710913
S11310706C6F7F6F6F5F7F4F8B819C810E946607CF
S1131080E981FA811E161F060CF47CCF0F900F9095
S11310900F900F90DF91CF911F910F91FF90EF90E0
S11310A0DF90CF90BF90AF909F908F907F906F9084
S11310B05F904F903F902F90089585B115B885B1FA
S11310C015B885B115B885B115B8089587EF93E0C3
S11310D00E948B0608951092C50087E68093C40091
S11310E0E1ECF0E0808188698083E2ECF0E08081CB
S11310F0866080830895E0ECF0E0808185FFFDCF79
S11311006093C6000895CF92DF92EF92FF920F93FF
S11311101F93CF93DF937C01FB0101900020E9F73B
S113112031976F01C61AD70A6AF08B01C0E0D0E08C
S1131130F80161918F01C7010E947B082196CC16AA
S1131140DD06B4F76AE0C7010E947B086DE0C701C1
S11311500E947B08DF91CF911F910F91FF90EF9038
S1131160DF90CF9008955058BB27AA270ED075C1A1
S113117066D130F06BD120F031F49F3F11F41EF4AE
S11311805BC10EF4E095E7FB51C1E92F77D180F301
S1131190BA17620773078407950718F071F49EF570
S11311A08FC10EF4E0950B2EBA2FA02D0B01B901BF
S11311B090010C01CA01A0011124FF27591B99F0C9
S11311C0593F50F4503E68F11A16F040A22F232FD5
S11311D0342F4427585FF3CF469537952795A79525
S11311E0F0405395C9F77EF41F16BA0B620B730BCC
S11311F0840BBAF09150A1F0FF0FBB1F661F771F3D
S1131200881FC2F70EC0BA0F621F731F841F48F4F1
S1131210879577956795B795F7959E3F08F0B3CF77
S11312209395880F08F09927EE0F97958795089561
S1131230D9D008F481E008950CD00FC107D140F053
S1131240FED030F021F45F3F19F0F0C0511139C1E4
S1131250F3C014D198F39923C9F35523B1F3951B23
S1131260550BBB27AA2762177307840738F09F5FC3
S11312705F4F220F331F441FAA1FA9F333D00E2E32
S11312803AF0E0E830D091505040E695001CCAF79F
S113129029D0FE2F27D0660F771F881FBB1F261764
S11312A037074807AB07B0E809F0BB0B802DBF0137
S11312B0FF2793585F4F2AF09E3F510568F0B6C050
S11312C000C15F3FECF3983EDCF386957795679514
S11312D0B795F7959F5FC9F7880F911D96958795E8
S11312E097F90895E1E0660F771F881FBB1F621707
S11312F073078407BA0720F0621B730B840BBA0BC5
S1131300EE1F88F7E095089504D06894B111D9C010
S11313100895BCD088F09F5790F0B92F9927B75102
S1131320A0F0D1F0660F771F881F991F1AF0BA95A5
S1131330C9F712C0B13081F0C3D0B1E00895C0C084
S1131340672F782F8827B85F39F0B93FCCF386959B
S113135077956795B395D9F73EF4909580957095F8
S113136061957F4F8F4F9F4F0895E89409C097FB75
S11313703EF490958095709561957F4F8F4F9F4F68
S11313809923A9F0F92F96E9BB279395F6958795AC
S113139077956795B795F111F8CFFAF4BB0F11F46F
S11313A060FF1BC06F5F7F4F8F4F9F4F16C0882316
S11313B011F096E911C0772321F09EE8872F762F4C
S11313C005C0662371F096E8862F70E060E02AF08D
S11313D09A95660F771F881FDAF7880F9695879579
S11313E097F90895990F0008550FAA0BE0E8FEEF4E
S11313F016161706E807F907C0F012161306E407D5
S1131400F50798F0621B730B840B950B39F40A26CD
S113141061F0232B242B252B21F408950A2609F4AB
S1131420A140A6958FEF811D811D089597F99F67AF
S113143080E870E060E008959FEF80EC0895002458
S11314400A941616170618060906089500240A9425
S113145012161306140605060895092E0394000CAB
S113146011F4882352F0BB0F40F4BF2B11F460FF3A
S113147004C06F5F7F4F8F4F9F4F089557FD905863
S1131480440F551F59F05F3F71F04795880F97FB44
S1131490991F61F09F3F79F08795089512161306FE
S11314A01406551FF2CF4695F1DF08C0161617062D
S11314B01806991FF1CF8695710561050894089562
S11314C0E894BB2766277727CB0197F908958ADF2D
S11314D008F48FEF08950BD0C0CFB1DF28F0B6DF4A
S11314E018F0952309F0A2CFA7CF1124EACFC6DFC5
S11314F0A0F3959FD1F3950F50E0551F629FF00123
S1131500729FBB27F00DB11D639FAA27F00DB11D7B
S1131510AA1F649F6627B00DA11D661F829F222704
S1131520B00DA11D621F739FB00DA11D621F839F8B
S1131530A00D611D221F749F3327A00D611D231F61
S1131540849F600D211D822F762F6A2F11249F57AF
S113155050408AF0E1F088234AF0EE0FFF1FBB1FD2
S1131560661F771F881F91505040A9F79E3F510571
S113157070F05CCFA6CF5F3FECF3983EDCF386952A
S113158077956795B795F795E7959F5FC1F7FE2B1C
S1131590880F911D9695879597F90895052E97FBC9
S11315A01EF400940E94E50A57FD07D00E94110B17
S11315B007FC03D04EF40C94E50A50954095309501
S11315C021953F4F4F4F5F4F0895909580957095AB
S11315D061957F4F8F4F9F4F0895EE0FFF1F05902A
S11315E0F491E02D09940024A7FD00942A0F301DE6
S11315F0401D501D601D701D801D901D08952A19E9
S11316003B094C095D096E097F09800B910B089514
S11316102A153B054C055D056E057F05800791077E
S11316200895A1E21A2EAA1BBB1BFD010DC0AA1F1F
S1131630BB1FEE1FFF1FA217B307E407F50720F037
S1131640A21BB30BE40BF50B661F771F881F991FB2
S11316501A9469F760957095809590959B01AC01FB
S1131660BD01CF010895EF920F931F93CF93DF93A2
S1131670E80147FF02C034E101C034E0E42FFF2752
S1131680E7FDF095F7FF03C0F195E195F109E32E2D
S1131690022F2E2FAE010E94580BCE01DF91CF9165
S11316A01F910F91EF900895662777270C94D60C1D
S11316B06F927F929F92AF92BF92CF92DF92EF92FE
S11316C0FF920F931F93CF93DF93CDB7DEB7299784
S11316D00FB6F894DEBF0FBECDBF6A01B22E102F35
S11316E00C3320F4FF24F394F00E02C04CE3F42EE8
S11316F00F2D27E0AE014F5F5F4F0E94390E7981B5
S1131700272F2970213031F0E1FC06C0E0FC06C02F
S113171060E005C06DE203C06BE201C060E2AE2D83
S1131720A07173FF36C0662311F084E001C083E02A
S11317308B1510F4B81A01C0B12CA1110BC0F6011D
S11317408B2D90E2882319F091938150FBCFCB0C21
S1131750D11CB12C662331F0F601608396012F5F12
S11317603F4F6901C6010396E2FE05C02EE4F6016F
S1131770208331E404C02EE6F601208331E6318370
S11317802283FC012B2D30E22223F1F131932150ED
S1131790FBCF72FF40C0662311F084E001C083E0F8
S11317A08B1510F4B81A01C0B12CA1110BC0F601AD
S11317B08B2D90E2882319F091938150FBCFCB0CB1
S11317C0D11CB12C662331F0F601608396012F5FA2
S11317D03F4F6901C6010396E2FE07C029E4F60102
S11317E020832EE4218326E406C029E6F601208323
S11317F02EE6218326E62283FC012B2D30E22223D0
S113180019F031932150FBCFFC01EB0DF11D108237
S11318108EEF9FEFB7C0B1E0611101C0B0E04B2F74
S113182050E01816190624F49C012F5F3F4F02C0A4
S113183021E030E0240F351F112329F0412F50E01F
S11318404F5F5F4F02C040E050E0420F531F2B2D0B
S113185030E04217530714F4B41A01C0B12C2E2DF2
S1131860287159F4F6012B2D30E2222319F031931B
S11318702150FBCFCB0CD11CB12CBB2331F0F60192
S1131880608396012F5F3F4F6901A1110BC0F601E0
S11318902B2D30E3222319F031932150FBCFCB0CB5
S11318A0D11CB12CF80E0A81372F3071A32E74FF8E
S11318B003C0013309F4FA941F142CF42F2D29309A
S11318C018F028E001C021E0682F392F97FF02C0EB
S11318D060E030E0462F532F612C712C3EE2932EB2
S11318E0BC01621B71099B01DC01A41BB50BE1E087
S11318F0F0E0EC0FFD1FAE0FBF1FE12EF12CF194B1
S1131900E194F1084F3FFFEF5F0731F4F601908255
S1131910B6016F5F7F4F6B01841795074CF0241756
S1131920350734F4BD01660D771DFB01118101C03B
S113193010E341505109FFEF6F1A7F0AB6016F5F40
S11319407F4F4E155F0524F0F60110836B01DACF4B
S11319504817590739F4063320F4053319F4A11054
S113196001C011E3F6011083FB018B2D90E2882363
S113197019F091938150FBCFFB01EB0DF11D108207
S113198080E090E029960FB6F894DEBF0FBECDBF7D
S1131990DF91CF911F910F91FF90EF90DF90CF9047
S11319A0BF90AF909F907F906F900895A0E0B0E0BB
S11319B0ECEDFCE00C94450F8B016115710521F0F1
S11319C0DB018C9311969C93EC015E01BFEFAB1A83
S11319D0BB0A7501C8808C2D90E00E94110F892BE1
S11319E011F0E501F2CFEDE2CE1208C07E01F2E083
S11319F0EF0EF11CC980DD24D39409C02BE2C2127E
S1131A0005C07E0142E0E40EF11CC980D12CE7013F
S1131A10219743E050E060E770E0CE010E94190F87
S1131A20892BC1F4239645E050E06BE670E0CE01CB
S1131A300E94190F892B09F425960115110519F037
S1131A40D801CD93DC93D11006C160E070E080E84A
S1131A509FE70AC143E050E068E670E0CE010E94CF
S1131A60190F892B59F40115110509F4F9C0B2E0D5
S1131A70EB0EF11CF801F182E082F2C0F70160E0A4
S1131A8070E0CB01C0E0D0E07F01A0EDAA2EAC0C49
S1131A9029E02A1530F14D2D4260B42E2D2D2870E9
S1131AA0D2FE04C0211125C0219623C02111219703
S1131AB0A5E0B0E09B01AC010E94340F660F771FD4
S1131AC0881F991F6A0D711D811D911D6839A9E92F
S1131AD07A078A07A9E19A0760F0BD2DB660BB2E8C
S1131AE008C02EEFA2120AC0D3FC50C04D2D48608E
S1131AF0B42E3196D701CC90DB2CC6CF2C2D2F7D64
S1131B00253409F043C0A081AD3241F4BD2DB0614C
S1131B10DB2E7F0122E0E20EF11C0CC07F01AB3210
S1131B2031F04FEFE41AF40A21E030E006C0A2E0FD
S1131B30EA0EF11CA18122E030E0A053AA3018F093
S1131B40E21AF30A23C0F70120E030E02038BCE0B9
S1131B503B075CF4A901440F551F440F551F240F84
S1131B60351F220F331F2A0F311DAF014F5F5F4F07
S1131B707A01A081A053AA3010F4FA01E7CFD4FE71
S1131B8003C0319521953109C20FD31FD1FE09C07D
S1131B900115110531F0E1E0EE1AF108D801ED92DA
S1131BA0FC920E94B5092D2D2370233019F04B01AE
S1131BB05C0106C04B015C01B7FAB094B7F8B0946D
S1131BC020E030E0A901C501B4010E94180988236E
S1131BD009F43EC0D7FF06C0D195C195D10907E8E5
S1131BE010E002C00FE910E06801B8E1CB1AD10897
S1131BF090E2E92EF12CCE15DF0574F0F801259161
S1131C00359145915491C501B4010E946B0A4B0171
S1131C105C01CE19DF09EFCF04501109F594E79464
S1131C200C151D0541F78A2D880F8B2D881F8F3FBA
S1131C3049F020E030E0A901C501B4010E9418096F
S1131C40811106C082E290E09093F9038093F80337
S1131C50C501B40109C060E070E080E89FEF04C0F2
S1131C6060E070E080EC9FE7CDB7DEB7ECE00C9469
S1131C70610F283008F027E03327DA01990F311D6E
S1131C8087FD916000966105710539F432602E5F1D
S1131C903D9330E32A95E1F708959F3F30F0803873
S1131CA07105610509F03C5F3C5F3D93913008F09C
S1131CB08068911DDF93CF931F930F93FF92EF9250
S1131CC0192F987F9695E92F96959695E90FFF27FA
S1131CD0E350FF4F99273327EE24FF24A701E701A0
S1131CE005900894079428F4360FE71EF81E491F40
S1131CF0511D660F771F881F991F0694A1F7059041
S1131D00079428F4E70EF81E491F561FC11D770FCC
S1131D10881F991F661F0694A1F70590079428F45D
S1131D20F80E491F561FC71FD11D880F991F661F24
S1131D30771F0694A1F70590079420F4490F561FC6
S1131D40C71FD81F990F661F771F881F0694A9F70E
S1131D5084911095177041F0D695C795579547957E
S1131D60F794E7941A95C1F7E3EAF0E068941590C4
S1131D70159135916591959105907FE27395E118E0
S1131D80F10A430B560BC90BD009C0F7E10CF11E45
S1131D90431F561FC91FD01D7EF4703311F48A955A
S1131DA0E6CFE894015030F0080F0AF40027021738
S1131DB008F4202F2395022F7A3328F079E37D93BA
S1131DC02A95E9F710C07D932A9589F6069497958C
S1131DD06795379517951794E118F10A430B560B3D
S1131DE0C90BD00998F023957E9173957A3308F046
S1131DF070E37C932013B8F77E9170617D9330F08B
S1131E00839571E37D9370E32A95E1F71124EF90B4
S1131E10FF900F911F91CF91DF91992787FD9095A6
S1131E20089591111EC0803219F089508550D0F761
S1131E300895FB01DC014150504088F08D918134BC
S1131E401CF08B350CF4805E659161341CF06B35AD
S1131E500CF4605E861B611171F3990B0895881B65
S1131E60FCCF9927882708950E94760FA59F900D8F
S1131E70B49F900DA49F800D911D112408952F925D
S1131E803F924F925F926F927F928F929F92AF9206
S1131E90BF92CF92DF92EF92FF920F931F93CF9353
S1131EA0DF93CDB7DEB7CA1BDB0B0FB6F894DEBFEA
S1131EB00FBECDBF09942A88398848885F846E8410
S1131EC07D848C849B84AA84B984C884DF80EE805A
S1131ED0FD800C811B81AA81B981CE0FD11D0FB663
S1131EE0F894DEBF0FBECDBFED010895A29FB001EF
S1131EF0B39FC001A39F700D811D1124911DB29F3A
S1111F00700D811D1124911D0895F894FFCFDA
S1131F0E00000000666686BF7B140EC07B1456C0AC
S1131F1EA4708DC07B14AEC00000CCC014AEE7C05C
S1131F2E48E100C1CDCC0CC1C3F51CC1AE472FC1D5
S1131F3E1F8541C1295C53C1EC5166C1713D78C105
S1131F4E48E184C166668DC1333395C166669DC111
S1131F5E3333A5C114AEADC1D7A3B6C10AD7BFC121
S1131F6E8FC2C8C1EC51D2C185EBDCC16666E7C134
S1131F7EF38EB940D34DC6403F57CF4014D0BE4028
S1131F8E9B55BF4011C7AA40E3C78040A9135840D0
S1131F9E32555040F38EDB3FCC5DDB40AC8B0341BE
S1131FAEAC1CEC40910FDC4002BC0A4158A8BF4067
S1131FBE8126F2403108BA40105871401A51A4409B
S1131FCE713DA040D578EB40F9310B41ACAD0741E2
S1131FDECE1910417AA526414D8487415EBA3B4104
S1131FEE470307C14E6210C1B00316C1D6560DC1C8
S1131FFECF660DC1D34D04C1226CE8C03F35DAC0A3
S113200EBF7DD7C041F1B9C07B140AC1696F15C138
S113201EA1F80EC134110BC19CC417C1D95F06C1FE
S113202EE02D10C18FC205C1BC96F4C0EBE201C114
S113203E6E3401C130BB0CC18A1F13C16F1212C1A1
S113204EC74B14C14F401AC1B00336C13F5720C10C
S113205E00000000DF4F4D3F2DB26D3F3D0A873F1C
S113206EDBF9963F17D9A63FC74BB73F8B6CC73FDB
S113207EC74BD73F14AEE73F022BF73F0C0203408A
S113208E1F850B401F8513401F851B400AD7234015
S113209E48E12A400AD733401F853B401F85434001
S11320AE1F854B400AD753401F855B400AD76340B8
S11320BE1F856B403333734033337B408FC2814073
S11320CEFCFF0400576970657220563A004D6F6428
S11320DE6520413A2057202B206F722053202D006B
S11320EE4D6F646520423A20496E70757420746198
S11320FE7267657420766F6C746167653A20302E52
S113210E38302D342E323000526573657420746F5E
S113211E203020644200496E7075742074617267B9
S113212E65742064423A20302E302D282D32382EFC
S113213E35290057656C636F6D6520746F204F569B
S113214E413635302054657374696E672053797344
S113215E74656D003D3D3D3D3D3D3D3D3D204D6530
S113216E6E75203D3D3D3D3D3D3D3D3D00412E20A6
S113217E5374657020627920737465703A20572BFE
S113218E20616E6420532D2E00422E2054617267FE
S113219E657420566F6C746167652E00522E205242
S11321AE6573657400542E205461726765742064DF
S11121BE4200526573657420646F776E2100D1
S9030000FC
