S0140000737465706D6F746F72302E302E7372656395
S11300000C94DB000C9403010C9403010C94030185
S11300100C9403010C9403010C9403010C9403014C
S11300200C9403010C9403010C9403010C9403013C
S11300300C9403010C9403010C9403010C9403012C
S11300400C945B060C9403010C943B050C94030183
S11300500C9403010C9403010C9403010C9403010C
S11300600C9403010C9403013E0745074D07540704
S11300705C0763076B0772074E414E494E4954595A
S1130080494E46CDCCCC3D0AD7233C17B7D138775F
S1130090CC2B329595E6241FB14F0A000020410075
S11300A000C84200401C4620BCBE4CCA1B0E5AAEBF
S11300B0C59D7400407A10F35A00A0724E180900CE
S11300C010A5D4E80000E87648170000E40B5402B9
S11300D00000CA9A3B000000E1F5050000809698F4
S11300E000000040420F000000A086010000001044
S11300F02700000000E80300000000640000000086
S1130100000A00000000000100000000002C76D866
S113011088DC674F0823DFC1DFAE59E1B1B796E54C
S1130120E3E453C63AE651997696E8E6C28426EBB0
S1130130898C9B62ED407C6FFCEFBC9C9F40F2BAC3
S1130140A56FA5F490055A2AF75C936B6CF9676D5B
S1130150C11BFCE0E40D47FEF520E6B500D0ED90B0
S11301602E0300943577050080841E080000204E7D
S11301700A000000C80C333333330F986E12831116
S113018041EF8D2114893BE65516CFFEE6DB18D1ED
S1130190844B381BF77C1D901DA4BBE424203284BF
S11301A0725E228100C9F124ECA1E53D270084019F
S11301B04506E806500811241FBECFEFD8E0DEBF85
S11301C0CDBF13E0A0E0B1E0E2EEFEE102C0059095
S11301D00D92A239B107D9F723E0A2E9B3E001C037
S11301E01D92AD3CB207E1F711E0C6EBD1E004C0CB
S11301F02297FE010E94D90ACE3AD107C9F70E947C
S1130200DE060C946F0F0C94000087B117B8EAE770
S1130210F0E0808187688083ECE7F0E0808180648F
S113022080830895089560E982E993E00E94600262
S113023061E082E993E00E94850260E082E993E054
S11302400E94850263EE82E993E00E94850282E9BE
S113025093E00E94A2020895CF93DF9360E982E9BC
S113026093E00E946002813029F060E082E993E02B
S11302700E94850282E993E00E94A20261E982E978
S113028093E00E946002813059F082E993E00E9479
S11302909702C82F82E993E00E949702D82F02C0E8
S11302A0D0E0C0E082E993E00E94A2022D2F30E06A
S11302B0C9019C2B959587959595879595958795D7
S11302C095958795DF91CF910895CF93DF93EC01B6
S11302D00E9413012FEF89EF90E02150804090405D
S11302E0E1F700C00000CE010E942C01BC0180E0B7
S11302F090E00E949F0926EA3BE944E45BE30E9404
S1130300550ADF91CF91089582E993E00E945C023F
S113031008950895CF92DF92EF92FF920F931F9367
S1130320CF93DF936A017B01CDE5D2E000E010E0DA
S11303306991799189919991A70196010E94020985
S113034088236CF5288139814A815B81C701B60114
S11303500E94020918161CF1000F111F000F111F33
S1130360E801C351DE4F20919303309194034091EF
S1130370950350919603C701B6010E949D082881F8
S113038039814A815B810E94550AF801E358FE4F86
S113039020813181428153810E949E0803C00F5FF6
S11303A01F4FC6CFDF91CF911F910F91FF90EF9018
S11303B0DF90CF900895CB01BA012BE33FED4FE2DC
S11303C05FE30E949D08609393037093940380936A
S11303D09503909396030895CF92DF92EF92FF9244
S11303E00F931F93CF93DF939A01AB0160E070E00A
S11303F0CB010E949D086B017C0120E030E0A90143
S11304000E940209811113C023EF3EE849EB50E436
S1130410C701B6010E949D0827E433E047E051EC90
S11304200E940609562F472F382F292F38C0CDE0B8
S1130430D1E000E010E02991399149915991C70127
S1130440B6010E94020988233CF5288139814A813A
S11304505B81C701B6010E94510A8823ECF0000FAA
S1130460111F000F111FF801E358FE4F2081318145
S113047042815381C701B6010E949D08F801E351EE
S1130480FE4F20813181428153810E940609562FFB
S1130490472F382F292F03C00F5F1F4FCCCF652F55
S11304A0742F832F922FDF91CF911F910F91FF9083
S11304B0EF90DF90CF90089588E48093B80008957A
S11304C0ECEBF0E0108284EA808380818823ECF7EF
S11304D08091B900887F8830A1F46093BB0084E8E0
S11304E08093BC00ECEBF0E080818823ECF79091E2
S11304F0B900987F983139F081E0903429F480E094
S1130500089581E0089580E008956093BB0084E835
S11305108093BC00ECEBF0E080818823ECF79091B1
S1130520B900987F81E0983209F480E0089584EC62
S11305308093BC00ECEBF0E080818823ECF78091A1
S1130540BB00089584E98093BC0008950E94550877
S11305500895CF93DF93CDB7DEB7A8970FB6F8947D
S1130560DEBF0FBECDBF8130910589F483E1EDEC90
S1130570F2E0DE01119601900D928A95E1F7BE0139
S11305806F5F7F4F8AEA93E00E946D083AC0823021
S1130590910589F488E2E0EEF2E0DE011196019023
S11305A00D928A95E1F7BE016F5F7F4F8AEA93E06F
S11305B00E946D0826C08330910589F48EE0E8E03E
S11305C0F3E0DE01119601900D928A95E1F7BE01E8
S11305D06F5F7F4F8AEA93E00E946D0812C0049710
S11305E081F48DE1E6E1F3E0DE01119601900D92D4
S11305F08A95E1F7BE016F5F7F4F8AEA93E00E941C
S11306006D08A8960FB6F894DEBF0FBECDBFDF917C
S1130610CF910895CF93DF93CDB7DEB7C355D109FA
S11306200FB6F894DEBF0FBECDBF88E0E3E3F3E07E
S1130630DE01A45BBF4F01900D928A95E1F789E139
S1130640EBE3F3E0DE015D9601900D928A95E1F70C
S11306508CE1E4E5F3E0DE01119601900D928A95B8
S1130660E1F789E0E0E7F3E0DE01AD5BBF4F019025
S11306700D928A95E1F78DE0E9E7F3E0DE01D69685
S113068001900D928A95E1F7BE01645B7F4F8AEA7F
S113069093E00E946D08BE01635E7F4F8AEA93E097
S11306A00E946D08BE016F5F7F4F8AEA93E00E944B
S11306B06D08BE016D5B7F4F8AEA93E00E946D086E
S11306C0BE016A5C7F4F8AEA93E00E946D08CD5AAE
S11306D0DF4F0FB6F894DEBF0FBECDBFDF91CF91D1
S11306E00895BC018BEA93E00E947A072FEF89E614
S11306F098E1215080409040E1F700C000008BEA6F
S113070093E00E94470808958BEA93E00E9447080B
S113071008950E940A0342E050E060E070E08BEA32
S113072093E00E940F070E9484030895CF92DF9202
S1130730EF92FF920F931F93CF93DF93CDB7DEB762
S11307402D970FB6F894DEBF0FBECDBF00E110E0C9
S1130750C12CD12C760188EA93E00E9465019B01AB
S1130760AC01C701B6010E949E086B017C010150D7
S113077011090115110579F720E030E040E85DE347
S11307800E94550A6B017C018E010F5F1F4F23E00D
S113079046E00E941D0B64E071E08AEA93E00E9447
S11307A06D08B8018AEA93E00E946D08B701A601BA
S11307B087EA93E00E948A0123E046E00E941D0B31
S11307C084E692E4A0E08B879C87AD87BE01655FD9
S11307D07F4F8AEA93E00E946D08B8018AEA93E0A9
S11307E00E946D08C701B6012D960FB6F894DEBFBE
S11307F00FBECDBFDF91CF911F910F91FF90EF906E
S1130800DF90CF900895BC018BEA93E00E947A07B1
S11308102FEF83EC99E0215080409040E1F700C035
S113082000008BEA93E00E9447082FEF83ED90E3EA
S1130830215080409040E1F700C000000E949603E0
S1130840089588EA93E00E9465010895CF92DF92AB
S1130850EF92FF92CF93DF93CDB7DEB72C970FB60D
S1130860F894DEBF0FBECDBF0E9421046B017C0152
S113087023E333E343E35FE30E94510A181664F56C
S113088023E333E343E35FE3C701B6010E949D081A
S113089022E430E645EE5CE30E9406096B017C012C
S11308A06091000170910101882777FD8095982F50
S11308B00E94A1099B01AC01C701B6010E94550A1F
S11308C00E946E09CB010E94710306C08091000151
S11308D0909101010E9471030E94210423E333E3F8
S11308E043E35FE30E94510A181684F30E94210433
S11308F0AB01BC0187EA93E00E94DB018CE0E6E8EF
S1130900F3E0DE01119601900D928A95E1F7BE01A4
S11309106F5F7F4F8AEA93E00E946D082C960FB6B2
S1130920F894DEBF0FBECDBFDF91CF91FF90EF9063
S1130930DF90CF9008958F929F92AF92BF92CF9203
S1130940DF92EF92FF926B017C010E9421044B0124
S11309505C012AE939E949E15FE3C701B6010E9474
S1130960020988230CF47CC020E030E048EE51E416
S1130970C701B6010E94510A18160CF471C0A701F0
S11309809601C501B4010E9402098823ACF5A501B2
S11309909401C701B6010E949D082FE832EC45EF8F
S11309A05CE30E9406094B015C01609102017091B5
S11309B00301882777FD8095982F0E94A1099B0148
S11309C0AC01C501B4010E94550A0E946E09CB0115
S11309D00E94710306C080910201909103010E945C
S11309E071030E9421049B01AC01C701B6010E945E
S11309F0510A181684F334C0A7019601C501B40145
S1130A000E949D082FE832EC45EF5CE30E94060942
S1130A104B015C016091000170910101882777FD11
S1130A208095982F0E94A1099B01AC01C501B401D6
S1130A300E94550A0E946E09CB010E94710306C0F0
S1130A4080910001909101010E9471030E94210490
S1130A509B01AC01C701B6010E940209882384F3FB
S1130A600E949603FF90EF90DF90CF90BF90AF90DD
S1130A709F908F9008951F920F920FB60F9211249A
S1130A80CF92DF92EF92FF920F931F932F933F9396
S1130A904F935F936F937F938F939F93AF93BF9382
S1130AA0EF93FF93CF93DF93CDB7DEB72A97DEBFE3
S1130AB0CDBFE6ECF0E020812083293081F0209343
S1130AC09C0380919A0390919B03FC01E356FC4F95
S1130AD02083019690939B0380939A03B7C09091CF
S1130AE09C03892F8F7D813461F481E090E00E9422
S1130AF0A90281E0809399031092980310929703BE
S1130B0026C0823561F483E090E00E94A90281E06E
S1130B1080939803109299031092970318C0843518
S1130B2061F484E090E00E94A9021092980310926C
S1130B30990381E0809397030AC09B3141F40E949A
S1130B400A031092990310929803109297038091CC
S1130B509903882361F180919C038F7D873591F4FB
S1130B600E94210420E030E040E850E40E940209A1
S1130B7088230CF065C080910201909103010E94CA
S1130B8003045EC0833509F05BC00E9421042DEC90
S1130B903CEC4CE45EE30E94510A18160CF050C081
S1130BA080910001909101010E94030449C0809149
S1130BB09803882319F00E94260442C08091970369
S1130BC0882309F43DC080919C038F7D8435C1F155
S1130BD08DE993E00E943E0B6B017C0120E030E044
S1130BE0A9010E94510A18165CF520E030E048EE95
S1130BF051E4C701B6010E94020918160CF1B701AD
S1130C00A60187EA93E00E94EC016B017C0120E0DD
S1130C1030E0A9010E940209882391F08E010F5F40
S1130C201F4F22E044E0C701B6010E941D0BB8012A
S1130C308AEA93E00E946D08C701B6010E949B04F2
S1130C4010929D0310929B0310929A032A960FB65A
S1130C50F894DEBF0FBECDBFDF91CF91FF91EF912E
S1130C60BF91AF919F918F917F916F915F914F91C0
S1130C703F912F911F910F91FF90EF90DF90CF90B4
S1130C800F900FBE0F901F9018958BEA93E00E946F
S1130C90ED068AEA93E00E94550889EA93E00E94EF
S1130CA0050188EA93E00E94120187EA93E00E941A
S1130CB08901089508951F920F920FB60F9211247F
S1130CC02F933F934F935F936F937F938F939F9350
S1130CD0AF93EF93FF93E091BF03F091C003E0580B
S1130CE0FF4FF093C003E093BF03E93E83E0F807AE
S1130CF068F12091C1033091C2034091C303509124
S1130D00C4036091C5037091C6038091C703909199
S1130D10C803A1E00E94DD0AE85EF340E93EA3E0D7
S1130D20FA07B8F72093C1033093C2034093C30377
S1130D305093C4036093C5037093C6038093C703A1
S1130D409093C803F093C003E093BF03FF91EF9126
S1130D50AF919F918F917F916F915F914F913F914F
S1130D602F910F900FBE0F901F901895F89420911B
S1130D70C1033091C2034091C3035091C4036091F5
S1130D80C5037091C6038091C7039091C8037894FA
S1130D90089585B5826085BDEEE6F0E080818160CE
S1130DA08083789408958AB11AB8579A5F9A0895FF
S1130DB0E1E8F0E080818760808308950E94D30693
S1130DC00E94D806789489EC93E00E948903FFCFAF
S1130DD089EC93E00E94A6020895FC01158614860E
S1130DE01382128211821082108A118A128A138A43
S1130DF080E094E0918780878FE084B985B115B84D
S1130E0085B115B885B115B885B115B884E090E001
S1130E10938782878AEC93E00E94C9060895CF9253
S1130E20DF92EF92FF92CF93DF93EC016A017B0193
S1130E3028853985442737FD4095542F60E67AEE9E
S1130E4080E090E00E94B80ACA01B901A7019601A6
S1130E500E94B80A2C833D834E835F83DF91CF9138
S1130E60FF90EF90DF90CF9008956830710508F0FF
S1130E7040C0FB01EC5CFF4F0C94D70A85B115B858
S1130E8085B115B82B9A2A9A089585B115B885B1FC
S1130E9015B885B115B82B9A089585B115B885B1E3
S1130EA015B8299A2B9A089585B115B885B115B846
S1130EB085B115B8299A089585B115B885B115B8C5
S1130EC0289A299A089585B115B885B115B885B1C0
S1130ED015B8289A089585B115B885B115B82A9A18
S1130EE0289A089585B115B885B115B885B115B896
S1130EF02A9A08952F923F924F925F926F927F9217
S1130F008F929F92AF92BF92CF92DF92EF92FF9215
S1130F100F931F93CF93DF9300D000D0CDB7DEB7EC
S1130F209C838B834B01772324F488249924861A89
S1130F30970A9A8289821616170634F481E090E0A3
S1130F40AB81BC818D939C9377230CF083C0EB81A0
S1130F50FC81118210827EC08AEC93E00E94B60666
S1130F60AB81BC815096ED90FD900D911C915397EF
S1130F7027013801770C4408542C3201AE2CBF2CC5
S1130F80C02ED12EE42CF42C042D142D0E94E90A39
S1130F90F22FE32F14960D911D912D913C911797EB
S1130FA0180129012F2F3E2FA22CB32CC42CD52C91
S1130FB0E12CF12C00E010E00E94F20A68F28AECC5
S1130FC093E00E94B606EB81FC81208B318B428B2F
S1130FD0538B80819181019769F48485958501966D
S1130FE0958784872085318582179307D1F41586E8
S1130FF0148617C0AB81BC811C968D919C911D9762
S1131000892B41F418968D919C9119971D969C9368
S11310108E931C97EB81FC81848595850197958738
S1131020848789819A8101979A838983AB81BC8162
S11310301C966D917C911D9767707078772334F4BA
S113104061507109686F7F6F6F5F7F4F8B819C81E7
S11310500E943507E981FA811E161F060CF47CCF25
S11310600F900F900F900F90DF91CF911F910F91E0
S1131070FF90EF90DF90CF90BF90AF909F908F90B4
S11310807F906F905F904F903F902F90089585B11F
S113109015B885B115B885B115B885B115B80895D9
S11310A08AEC93E00E945A0608951092C50087E6E0
S11310B08093C400E1ECF0E0808188698083E2ECF5
S11310C0F0E08081866080830895E0ECF0E0808128
S11310D085FFFDCF6093C6000895CF92DF92EF9213
S11310E0FF920F931F93CF93DF937C01FB01019039
S11310F00020E9F731976F01C61AD70A6AF08B010D
S1131100C0E0D0E0F80161918F01C7010E94650839
S11311102196CC16DD06B4F76AE0C7010E94650883
S11311206DE0C7010E946508DF91CF911F910F9177
S1131130FF90EF90DF90CF9008955058BB27AA27D7
S11311400ED075C166D130F06BD120F031F49F3FE1
S113115011F41EF45BC10EF4E095E7FB51C1E92FD5
S113116077D180F3BA17620773078407950718F0DD
S113117071F49EF58FC10EF4E0950B2EBA2FA02DBD
S11311800B01B90190010C01CA01A0011124FF2730
S1131190591B99F0593F50F4503E68F11A16F0402B
S11311A0A22F232F342F4427585FF3CF469537952A
S11311B02795A795F0405395C9F77EF41F16BA0BEF
S11311C0620B730B840BBAF09150A1F0FF0FBB1F9D
S11311D0661F771F881FC2F70EC0BA0F621F731FE6
S11311E0841F48F4879577956795B795F7959E3F43
S11311F008F0B3CF9395880F08F09927EE0F9795D1
S113120087950895D9D008F481E008950CD00FC1D2
S113121007D140F0FED030F021F45F3F19F0F0C068
S1131220511139C1F3C014D198F39923C9F355234B
S1131230B1F3951B550BBB27AA27621773078407C5
S113124038F09F5F5F4F220F331F441FAA1FA9F37B
S113125033D00E2E3AF0E0E830D091505040E6956D
S1131260001CCAF729D0FE2F27D0660F771F881FCE
S1131270BB1F261737074807AB07B0E809F0BB0BBD
S1131280802DBF01FF2793585F4F2AF09E3F5105E1
S113129068F0B6C000C15F3FECF3983EDCF386957E
S11312A077956795B795F7959F5FC9F7880F911D57
S11312B09695879597F90895E1E0660F771F881F43
S11312C0BB1F621773078407BA0720F0621B730BF6
S11312D0840BBA0BEE1F88F7E095089504D0689448
S11312E0B111D9C00895BCD088F09F5790F0B92FA0
S11312F09927B751A0F0D1F0660F771F881F991F67
S11313001AF0BA95C9F712C0B13081F0C3D0B1E078
S11313100895C0C0672F782F8827B85F39F0B93F88
S1131320CCF3869577956795B395D9F73EF4909568
S11313308095709561957F4F8F4F9F4F0895E894E6
S113134009C097FB3EF490958095709561957F4F09
S11313508F4F9F4F9923A9F0F92F96E9BB279395B7
S1131360F695879577956795B795F111F8CFFAF4C7
S1131370BB0F11F460FF1BC06F5F7F4F8F4F9F4FF8
S113138016C0882311F096E911C0772321F09EE856
S1131390872F762F05C0662371F096E8862F70E0BC
S11313A060E02AF09A95660F771F881FDAF7880F96
S11313B09695879597F90895990F0008550FAA0BEC
S11313C0E0E8FEEF16161706E807F907C0F0121654
S11313D01306E407F50798F0621B730B840B950B57
S11313E039F40A2661F0232B242B252B21F40895AC
S11313F00A2609F4A140A6958FEF811D811D089549
S113140097F99F6780E870E060E008959FEF80ECB3
S1131410089500240A941616170618060906089556
S113142000240A9412161306140605060895092EBC
S11314300394000C11F4882352F0BB0F40F4BF2B2B
S113144011F460FF04C06F5F7F4F8F4F9F4F08956B
S113145057FD9058440F551F59F05F3F71F0479561
S1131460880F97FB991F61F09F3F79F08795089546
S1131470121613061406551FF2CF4695F1DF08C065
S1131480161617061806991FF1CF86957105610582
S113149008940895E894BB2766277727CB0197F92A
S11314A008958ADF08F48FEF08950BD0C0CFB1DF21
S11314B028F0B6DF18F0952309F0A2CFA7CF1124A6
S11314C0EACFC6DFA0F3959FD1F3950F50E0551FE7
S11314D0629FF001729FBB27F00DB11D639FAA2785
S11314E0F00DB11DAA1F649F6627B00DA11D661FD4
S11314F0829F2227B00DA11D621F739FB00DA11DF5
S1131500621F839FA00D611D221F749F3327A00DAE
S1131510611D231F849F600D211D822F762F6A2F4A
S113152011249F5750408AF0E1F088234AF0EE0FCF
S1131530FF1FBB1F661F771F881F91505040A9F7DC
S11315409E3F510570F05CCFA6CF5F3FECF3983E11
S1131550DCF3869577956795B795F795E7959F5F43
S1131560C1F7FE2B880F911D9695879597F90895DD
S1131570052E97FB1EF400940E94CF0A57FD07D056
S11315800E94FB0A07FC03D04EF40C94CF0A50953A
S11315904095309521953F4F4F4F5F4F089590955B
S11315A08095709561957F4F8F4F9F4F0895EE0FF3
S11315B0FF1F0590F491E02D09940024A7FD0094E9
S11315C02A0F301D401D501D601D701D801D901D73
S11315D008952A193B094C095D096E097F09800B9E
S11315E0910B08952A153B054C055D056E057F0595
S11315F0800791070895A1E21A2EAA1BBB1BFD01C7
S11316000DC0AA1FBB1FEE1FFF1FA217B307E407DD
S1131610F50720F0A21BB30BE40BF50B661F771F35
S1131620881F991F1A9469F7609570958095909515
S11316309B01AC01BD01CF010895EF920F931F935D
S1131640CF93DF93E80147FF02C034E101C034E0E7
S1131650E42FFF27E7FDF095F7FF03C0F195E1952F
S1131660F109E32E022F2E2FAE010E94420BCE0170
S1131670DF91CF911F910F91EF90089566277727FF
S11316800C94C00C6F927F929F92AF92BF92CF92B4
S1131690DF92EF92FF920F931F93CF93DF93CDB717
S11316A0DEB729970FB6F894DEBF0FBECDBF6A012F
S11316B0B22E102F0C3320F4FF24F394F00E02C04A
S11316C04CE3F42E0F2D27E0AE014F5F5F4F0E94D5
S11316D0230E7981272F2970213031F0E1FC06C0D7
S11316E0E0FC06C060E005C06DE203C06BE201C02F
S11316F060E2AE2DA07173FF36C0662311F084E062
S113170001C083E08B1510F4B81A01C0B12CA111EB
S11317100BC0F6018B2D90E2882319F09193815030
S1131720FBCFCB0CD11CB12C662331F0F6016083C6
S113173096012F5F3F4F6901C6010396E2FE05C083
S11317402EE4F601208331E404C02EE6F601208362
S113175031E631832283FC012B2D30E22223F1F187
S113176031932150FBCF72FF40C0662311F084E017
S113177001C083E08B1510F4B81A01C0B12CA1117B
S11317800BC0F6018B2D90E2882319F091938150C0
S1131790FBCFCB0CD11CB12C662331F0F601608356
S11317A096012F5F3F4F6901C6010396E2FE07C011
S11317B029E4F60120832EE4218326E406C029E6E9
S11317C0F60120832EE6218326E62283FC012B2DBD
S11317D030E2222319F031932150FBCFFC01EB0DB1
S11317E0F11D10828EEF9FEFB7C0B1E0611101C00F
S11317F0B0E04B2F50E01816190624F49C012F5F1B
S11318003F4F02C021E030E0240F351F112329F09F
S1131810412F50E04F5F5F4F02C040E050E0420F65
S1131820531F2B2D30E04217530714F4B41A01C090
S1131830B12C2E2D287159F4F6012B2D30E22223E0
S113184019F031932150FBCFCB0CD11CB12CBB230D
S113185031F0F601608396012F5F3F4F6901A111BA
S11318600BC0F6012B2D30E3222319F031932150C4
S1131870FBCFCB0CD11CB12CF80E0A81372F307161
S1131880A32E74FF03C0013309F4FA941F142CF43B
S11318902F2D293018F028E001C021E0682F392FBE
S11318A097FF02C060E030E0462F532F612C712C6B
S11318B03EE2932EBC01621B71099B01DC01A41B57
S11318C0B50BE1E0F0E0EC0FFD1FAE0FBF1FE12E02
S11318D0F12CF194E194F1084F3FFFEF5F0731F4ED
S11318E0F6019082B6016F5F7F4F6B0184179507F5
S11318F04CF02417350734F4BD01660D771DFB0148
S1131900118101C010E341505109FFEF6F1A7F0AA2
S1131910B6016F5F7F4F4E155F0524F0F60110830B
S11319206B01DACF4817590739F4063320F405332D
S113193019F4A11001C011E3F6011083FB018B2DF2
S113194090E2882319F091938150FBCFFB01EB0DBA
S1131950F11D108280E090E029960FB6F894DEBF66
S11319600FBECDBFDF91CF911F910F91FF90EF90EC
S1131970DF90CF90BF90AF909F907F906F9008952D
S1131980A0E0B0E0E6ECFCE00C942F0F8B016115B5
S1131990710521F0DB018C9311969C93EC015E019F
S11319A0BFEFAB1ABB0A7501C8808C2D90E00E9472
S11319B0FB0E892B11F0E501F2CFEDE2CE1208C047
S11319C07E01F2E0EF0EF11CC980DD24D39409C03E
S11319D02BE2C21205C07E0142E0E40EF11CC98074
S11319E0D12CE701219743E050E060E870E0CE019C
S11319F00E94030F892BC1F4239645E050E06BE766
S1131A0070E0CE010E94030F892B09F4259601157D
S1131A10110519F0D801CD93DC93D11006C160E013
S1131A2070E080E89FE70AC143E050E068E770E0B7
S1131A30CE010E94030F892B59F40115110509F4F5
S1131A40F9C0B2E0EB0EF11CF801F182E082F2C0C1
S1131A50F70160E070E0CB01C0E0D0E07F01A0EDD1
S1131A60AA2EAC0C29E02A1530F14D2D4260B42E7B
S1131A702D2D2870D2FE04C0211125C0219623C02B
S1131A8021112197A5E0B0E09B01AC010E941E0F3B
S1131A90660F771F881F991F6A0D711D811D911D87
S1131AA06839A9E97A078A07A9E19A0760F0BD2D88
S1131AB0B660BB2E08C02EEFA2120AC0D3FC50C0E1
S1131AC04D2D4860B42E3196D701CC90DB2CC6CF77
S1131AD02C2D2F7D253409F043C0A081AD3241F473
S1131AE0BD2DB061DB2E7F0122E0E20EF11C0CC0A3
S1131AF07F01AB3231F04FEFE41AF40A21E030E019
S1131B0006C0A2E0EA0EF11CA18122E030E0A0535D
S1131B10AA3018F0E21AF30A23C0F70120E030E0FB
S1131B202038BCE03B075CF4A901440F551F440F67
S1131B30551F240F351F220F331F2A0F311DAF01EC
S1131B404F5F5F4F7A01A081A053AA3010F4FA01CD
S1131B50E7CFD4FE03C0319521953109C20FD31FBD
S1131B60D1FE09C00115110531F0E1E0EE1AF108CA
S1131B70D801ED92FC920E949F092D2D23702330F1
S1131B8019F04B015C0106C04B015C01B7FAB0943B
S1131B90B7F8B09420E030E0A901C501B4010E9477
S1131BA00209882309F43EC0D7FF06C0D195C19528
S1131BB0D10907E910E002C00FEA10E06801B8E1BA
S1131BC0CB1AD10890E2E92EF12CCE15DF0574F082
S1131BD0F8012591359145915491C501B4010E94B4
S1131BE0550A4B015C01CE19DF09EFCF04501109EE
S1131BF0F594E7940C151D0541F78A2D880F8B2D5C
S1131C00881F8F3F49F020E030E0A901C501B401ED
S1131C100E940209811106C082E290E09093CC03F5
S1131C208093CB03C501B40109C060E070E080E893
S1131C309FEF04C060E070E080EC9FE7CDB7DEB7B3
S1131C40ECE00C944B0F283008F027E03327DA013E
S1131C50990F311D87FD916000966105710539F476
S1131C6032602E5F3D9330E32A95E1F708959F3F5C
S1131C7030F080387105610509F03C5F3C5F3D93AD
S1131C80913008F08068911DDF93CF931F930F93D9
S1131C90FF92EF92192F987F9695E92F9695969536
S1131CA0E90FFF27E35FFE4F99273327EE24FF2434
S1131CB0A701E70105900894079428F4360FE71E5E
S1131CC0F81E491F511D660F771F881F991F069420
S1131CD0A1F70590079428F4E70EF81E491F561F34
S1131CE0C11D770F881F991F661F0694A1F70590E1
S1131CF0079428F4F80E491F561FC71FD11D880FDB
S1131D00991F661F771F0694A1F70590079420F486
S1131D10490F561FC71FD81F990F661F771F881FAB
S1131D200694A9F784911095177041F0D695C7953C
S1131D3057954795F794E7941A95C1F7E3EBF0E0CC
S1131D4068941590159135916591959105907FE270
S1131D507395E118F10A430B560BC90BD009C0F770
S1131D60E10CF11E431F561FC91FD01D7EF47033B2
S1131D7011F48A95E6CFE894015030F0080F0AF484
S1131D800027021708F4202F2395022F7A3328F016
S1131D9079E37D932A95E9F710C07D932A9589F616
S1131DA0069497956795379517951794E118F10A56
S1131DB0430B560BC90BD00998F023957E9173956C
S1131DC07A3308F070E37C932013B8F77E91706146
S1131DD07D9330F0839571E37D9370E32A95E1F769
S1131DE01124EF90FF900F911F91CF91DF919927CC
S1131DF087FD9095089591111EC0803219F0895085
S1131E008550D0F70895FB01DC014150504088F023
S1131E108D9181341CF08B350CF4805E65916134B6
S1131E201CF06B350CF4605E861B611171F3990B29
S1131E300895881BFCCF9927882708950E94600F76
S1131E40A59F900DB49F900DA49F800D911D11240A
S1131E5008952F923F924F925F926F927F928F924A
S1131E609F92AF92BF92CF92DF92EF92FF920F9325
S1131E701F93CF93DF93CDB7DEB7CA1BDB0B0FB62F
S1131E80F894DEBF0FBECDBF09942A8839884888EC
S1131E905F846E847D848C849B84AA84B984C88482
S1131EA0DF80EE80FD800C811B81AA81B981CE0F79
S1131EB0D11D0FB6F894DEBF0FBECDBFED0108955E
S1131EC0A29FB001B39FC001A39F700D811D112477
S1131ED0911DB29F700D811D1124911D0895F894D8
S1051EE0FFCF2E
S1131EE2F8FF0800576970657220563A0000000036
S1131EF200666686BF7B140EC07B1456C0A4708D28
S1131F02C07B14AEC00000CCC014AEE7C048E100F0
S1131F12C1CDCC0CC1C3F51CC1AE472FC11F854135
S1131F22C1295C53C1EC5166C1713D78C148E18459
S1131F32C166668DC1333395C166669DC13333A5CF
S1131F42C114AEADC1D7A3B6C10AD7BFC18FC2C82F
S1131F52C1EC51D2C185EBDCC16666E7C1F38EB92F
S1131F6240D34DC6403F57CF4014D0BE409B55BFCF
S1131F724011C7AA40E3C78040A9135840325550C4
S1131F8240F38EDB3FCC5DDB40AC8B0341AC1CECFD
S1131F9240910FDC4002BC0A4158A8BF408126F29E
S1131FA2403108BA40105871401A51A440713DA002
S1131FB240D578EB40F9310B41ACAD0741CE191055
S1131FC2417AA526414D8487415EBA3B41470307C6
S1131FD2C14E6210C1B00316C1D6560DC1CF660DF3
S1131FE2C1D34D04C1226CE8C03F35DAC0BF7DD7EE
S1131FF2C041F1B9C07B140AC1696F15C1A1F80EC1
S1132002C134110BC19CC417C1D95F06C1E02D10A4
S1132012C18FC205C1BC96F4C0EBE201C16E3401AA
S1132022C130BB0CC18A1F13C16F1212C1C74B143A
S1132032C14F401AC1B00336C13F5720C10000004E
S113204200DF4F4D3F2DB26D3F3D0A873FDBF996CE
S11320523F17D9A63FC74BB73F8B6CC73FC74BD778
S11320623F14AEE73F022BF73F0C0203401F850BE0
S1132072401F8513401F851B400AD7234048E12A8D
S1132082400AD733401F853B401F8543401F854B81
S1132092400AD753401F855B400AD763401F856BB4
S11320A2403333734033337B408FC281404D6F647E
S11320B26520413A2057202B206F722053202D0097
S11320C24D6F646520423A20496E707574207461C4
S11320D27267657420766F6C746167653A20302E7E
S11320E238302D342E323000526573657420746F8B
S11320F2203020644200496E7075742074617267E6
S113210265742064423A20302E302D282D32382E28
S113211235290057656C636F6D65003D3D3D3D3D5E
S11321223D3D3D3D204D656E75203D3D3D3D3D3D72
S11321323D3D3D00412E2053746570206279207329
S11321427465703A20572B20616E6420532D2E0043
S1132152522E20526573657400542E2054617267A6
S1132162657420644200526573657420646F776EEF
S1052172210046
S9030000FC
