:100000000C94B5000C94DD000C94DD000C94DD0024
:100010000C94DD000C94DD000C94DD000C94DD00EC
:100020000C94DD000C94DD000C94DD000C94DD00DC
:100030000C94DD000C94DD000C94DD000C94DD00CC
:100040000C94C3040C94DD000C9405040C94DD00A6
:100050000C94DD000C94DD000C94DD000C94DD00AC
:100060000C94DD000C94DD0000407A10F35A00A0DF
:10007000724E18090010A5D4E80000E87648170071
:1000800000E40B54020000CA9A3B000000E1F505B1
:10009000000080969800000040420F000000A086FB
:1000A00001000000102700000000E803000000002D
:1000B0006400000000000A000000000001000000D1
:1000C00000002C76D888DC674F0823DFC1DFAE59EB
:1000D000E1B1B796E5E3E453C63AE651997696E87E
:1000E000E6C28426EB898C9B62ED407C6FFCEFBC02
:1000F0009C9F40F2BAA56FA5F490055A2AF75C932D
:100100006B6CF9676DC11BFCE0E40D47FEF520E662
:10011000B500D0ED902E0300943577050080841E45
:10012000080000204E0A000000C80C333333330FA0
:10013000986E12831141EF8D2114893BE65516CF3D
:10014000FEE6DB18D1844B381BF77C1D901DA4BB49
:10015000E424203284725E228100C9F124ECA1E5FE
:100160003D275E01AD0450059D0611241FBECFEF53
:10017000D8E0DEBFCDBF13E0A0E0B1E0E6ECF7E1F0
:1001800002C005900D92A232B107D9F723E0A2E296
:10019000B3E001C01D92AB35B207E1F711E0CAE64A
:1001A000D1E004C02297FE010E942609C236D10781
:1001B000C9F70E9446050C94E10B0C94000087B12E
:1001C00017B8EAE7F0E0808187688083ECE7F0E029
:1001D0008081806480830895089560E982E293E0DD
:1001E0000E94CA0161E082E293E00E94EF0160E0B8
:1001F00082E293E00E94EF0163EE82E293E00E94CC
:10020000EF0182E293E00E940C020895CF93DF9306
:1002100060E982E293E00E94CA01813029F060E047
:1002200082E293E00E94EF0182E293E00E940C02DE
:1002300061E982E293E00E94CA01813059F082E2D2
:1002400093E00E940102C82F82E293E00E94010223
:10025000D82F02C0D0E0C0E082E293E00E940C02FE
:100260002D2F30E0C9019C2B959587959595879505
:100270009595879595958795DF91CF910895CF9323
:10028000DF93EC010E94ED002FEF89EF90E0215009
:1002900080409040E1F700C00000CE010E940601BE
:1002A000BC0180E090E00E94EC0726EA3BE944E4D0
:1002B0005BE30E94A208DF91CF91089582E293E070
:1002C0000E94C60108950895CF92DF92EF92FF92A7
:1002D0000F931F93CF93DF936A017B01C0EED1E0B0
:1002E00000E010E06991799189919991A7019601B7
:1002F0000E944F0788236CF5288139814A815B81F0
:10030000C701B6010E944F0718161CF1000F111FFC
:10031000000F111FE801C059DE4F209123033091D7
:1003200024034091250350912603C701B6010E9482
:10033000EA06288139814A815B810E94A208F8017E
:10034000E050FF4F20813181428153810E94EB06B2
:1003500003C00F5F1F4FC6CFDF91CF911F910F9149
:10036000FF90EF90DF90CF900895CB01BA012BE37F
:100370003FED4FE25FE30E94EA0660932303709330
:1003800024038093250390932603089588E48093A3
:10039000B8000895ECEBF0E0108284EA808380815D
:1003A0008823ECF78091B900887F8830A1F46093AE
:1003B000BB0084E88093BC00ECEBF0E080818823F4
:1003C000ECF79091B900987F983139F081E0903442
:1003D00029F480E0089581E0089580E00895609315
:1003E000BB0084E88093BC00ECEBF0E080818823C4
:1003F000ECF79091B900987F81E0983209F480E0A1
:10040000089584EC8093BC00ECEBF0E080818823BD
:10041000ECF78091BB00089584E98093BC000895B7
:100420000E94A2060895CF93DF93CDB7DEB7A897B9
:100430000FB6F894DEBF0FBECDBF8130910589F4B1
:1004400083E1EDE5F2E0DE01119601900D928A95CF
:10045000E1F7BE016F5F7F4F8AE393E00E94BA0627
:100460003AC08230910589F488E2E0E7F2E0DE01EB
:10047000119601900D928A95E1F7BE016F5F7F4F53
:100480008AE393E00E94BA0626C08330910589F47E
:100490008EE0E8E9F2E0DE01119601900D928A9576
:1004A000E1F7BE016F5F7F4F8AE393E00E94BA06D7
:1004B00012C0049781F48DE1E6EAF2E0DE011196C4
:1004C00001900D928A95E1F7BE016F5F7F4F8AE33D
:1004D00093E00E94BA06A8960FB6F894DEBF0FBE4E
:1004E000CDBFDF91CF910895CF93DF93CDB7DEB726
:1004F000C355D1090FB6F894DEBF0FBECDBF88E05B
:10050000E3ECF2E0DE01A45BBF4F01900D928A950F
:10051000E1F789E1EBECF2E0DE015D9601900D92EE
:100520008A95E1F78CE1E4EEF2E0DE0111960190AC
:100530000D928A95E1F789E0E0E0F3E0DE01AD5B42
:10054000BF4F01900D928A95E1F78DE0E9E0F3E06D
:10055000DE01D69601900D928A95E1F7BE01645BAB
:100560007F4F8AE393E00E94BA06BE01635E7F4F2D
:100570008AE393E00E94BA06BE016F5F7F4F8AE371
:1005800093E00E94BA06BE016D5B7F4F8AE393E061
:100590000E94BA06BE016A5C7F4F8AE393E00E9424
:1005A000BA06CD5ADF4F0FB6F894DEBF0FBECDBFEF
:1005B000DF91CF910895BC018BE393E00E94C705C2
:1005C0002FEF89E698E1215080409040E1F700C08C
:1005D00000008BE393E00E94940608958BE393E080
:1005E0000E94940608950E94740244E050E060E086
:1005F00070E08BE393E00E9477050E94EE0208957D
:10060000CF92DF92EF92FF920F931F93CF93DF93DE
:10061000CDB7DEB72D970FB6F894DEBF0FBECDBFB6
:1006200000E110E0C12CD12C760188E393E00E9418
:100630003F019B01AC01C701B6010E94EB066B01B3
:100640007C01015011090115110579F720E030E016
:1006500040E85DE30E94A2086B017C018E010F5F00
:100660001F4F23E046E00E946A0964E572E08AE3D6
:1006700093E00E94BA06B8018AE393E00E94BA06AA
:10068000B701A60187E393E00E94640123E046E0FE
:100690000E946A0984E692E4A0E08B879C87AD877C
:1006A000BE01655F7F4F8AE393E00E94BA06B801FE
:1006B0008AE393E00E94BA06C701B6012D960FB6F1
:1006C000F894DEBF0FBECDBFDF91CF911F910F9188
:1006D000FF90EF90DF90CF900895BC018BE393E003
:1006E0000E94C7052FEF83EC99E021508040904095
:1006F000E1F700C000008BE393E00E9494062FEF27
:1007000083ED90E3215080409040E1F700C000006D
:100710000E940003089588E393E00E943F0108953A
:10072000CF92DF92EF92FF92CF93DF93CDB7DEB7F8
:100730002C970FB6F894DEBF0FBECDBF0E948B037F
:100740006B017C0123E333E343E35FE30E949E08F4
:10075000181664F523E333E343E35FE3C701B6010F
:100760000E94EA062FE832EC45EF5CE30E94530753
:100770006B017C016091500270915102882777FDD6
:100780008095982F0E94EE079B01AC01C701B6012E
:100790000E94A2080E94BB07CB010E94DB0206C098
:1007A00080915002909151020E94DB020E948B03C3
:1007B00023E333E343E35FE30E949E08181684F3C8
:1007C0000E948B03AB01BC0187E393E00E94B5015B
:1007D0008CE0E6E1F3E0DE01119601900D928A953E
:1007E000E1F7BE016F5F7F4F8AE393E00E94BA0694
:1007F0002C960FB6F894DEBF0FBECDBFDF91CF9120
:10080000FF90EF90DF90CF9008951F920F920FB658
:100810000F9211242F933F934F935F936F937F9386
:100820008F939F93AF93BF93EF93FF93E6ECF0E02A
:1008300020812083293081F020932C0380912A038A
:1008400090912B03FC01E35DFC4F20830196909374
:100850002B0380932A0370C090912C03892F8F7DE6
:10086000813461F481E090E00E94130281E0809382
:100870002903109228031092270326C0823561F4C1
:1008800083E090E00E94130281E08093280310929D
:1008900029031092270318C0843561F484E090E0A6
:1008A0000E941302109228031092290381E0809382
:1008B00027030AC09B3141F40E947402109229035D
:1008C000109228031092270380912903882349F16D
:1008D00080912C038F7D873589F40E948B0320E063
:1008E00030E040E850E40E944F078823FCF48091F8
:1008F0005202909153020E946D0318C08335B1F4E7
:100900000E948B032DEC3CEC4CE45EE30E949E08BD
:10091000181664F480915002909151020E946D0368
:1009200005C08091280381110E94900310922D032D
:1009300010922B0310922A03FF91EF91BF91AF9178
:100940009F918F917F916F915F914F913F912F91E7
:100950000F900FBE0F901F9018958BE393E00E94AD
:1009600055058AE393E00E94A20689E393E00E9482
:10097000DF0088E393E00E94EC0087E393E00E94AD
:100980006301089508951F920F920FB60F921124DC
:100990002F933F934F935F936F937F938F939F9387
:1009A000AF93EF93FF93E0914F03F0915003E05822
:1009B000FF4FF0935003E0934F03E93E83E0F807C5
:1009C00068F12091510330915203409153035091AB
:1009D0005403609155037091560380915703909191
:1009E0005803A1E00E942A09E85EF340E93EA3E033
:1009F000FA07B8F7209351033093520340935303FF
:100A00005093540360935503709356038093570398
:100A100090935803F0935003E0934F03FF91EF91AD
:100A2000AF919F918F917F916F915F914F913F9186
:100A30002F910F900FBE0F901F901895F894209152
:100A400051033091520340915303509154036091EC
:100A500055037091560380915703909158037894F1
:100A6000089585B5826085BDEEE6F0E08081816005
:100A70008083789408958AB11AB8579A5F9A089536
:100A8000E1E8F0E080818760808308950E943B0563
:100A90000E944005789489E593E00E94F302FFCF1D
:100AA00089E593E00E9410020895FC0115861486E2
:100AB0001382128211821082108A118A128A138A7A
:100AC00080ED97E0918780878FE084B985B115B874
:100AD00085B115B885B115B885B115B884E090E039
:100AE000938782878AE593E00E9431050895CF922B
:100AF000DF92EF92FF92CF93DF93EC016A017B01CB
:100B000028853985442737FD4095542F60E67AEED5
:100B100080E090E00E940509CA01B901A701960191
:100B20000E9405092C833D834E835F83DF91CF9123
:100B3000FF90EF90DF90CF9008956130710591F0B4
:100B40001CF4672B41F008956230710591F0633019
:100B50007105B1F0089585B115B885B115B82B9A16
:100B60002A9A089585B115B885B115B8299A2B9A96
:100B7000089585B115B885B115B8289A299A0895B0
:100B800085B115B885B115B82A9A289A08952F927B
:100B90003F924F925F926F927F928F929F92AF920D
:100BA000BF92CF92DF92EF92FF920F931F93CF935A
:100BB000DF9300D000D0CDB7DEB79C838B834B0191
:100BC000772324F488249924861A970A9A828982A2
:100BD0001616170634F481E090E0AB81BC818D934A
:100BE0009C9377230CF083C0EB81FC8111821082EF
:100BF0007EC08AE593E00E941E05AB81BC815096C1
:100C0000ED90FD900D911C91539727013801770CC1
:100C10004408542C3201AE2CBF2CC02ED12EE42C13
:100C2000F42C042D142D0E943609F22FE32F149674
:100C30000D911D912D913C911797180129012F2F8E
:100C40003E2FA22CB32CC42CD52CE12CF12C00E08F
:100C500010E00E943F0968F28AE593E00E941E05B9
:100C6000EB81FC81208B318B428B538B8081918176
:100C7000019769F4848595850196958784872085F9
:100C8000318582179307D1F41586148617C0AB817E
:100C9000BC811C968D919C911D97892B41F41896CF
:100CA0008D919C9119971D969C938E931C97EB8127
:100CB000FC818485958501979587848789819A81B0
:100CC00001979A838983AB81BC811C966D917C913D
:100CD0001D9763707078772334F4615071096C6FDD
:100CE0007F6F6F5F7F4F8B819C810E949D05E981A3
:100CF000FA811E161F060CF47CCF0F900F900F90F8
:100D00000F90DF91CF911F910F91FF90EF90DF90A7
:100D1000CF90BF90AF909F908F907F906F905F909B
:100D20004F903F902F90089585B115B885B115B8B3
:100D300085B115B885B115B808958AE593E00E948C
:100D4000C20408951092C50087E68093C400E1ECC8
:100D5000F0E0808188698083E2ECF0E08081866049
:100D600080830895E0ECF0E0808185FFFDCF609303
:100D7000C6000895CF92DF92EF92FF920F931F93D8
:100D8000CF93DF937C01FB0101900020E9F73197BD
:100D90006F01C61AD70A6AF08B01C0E0D0E0F801F3
:100DA00061918F01C7010E94B2062196CC16DD0623
:100DB000B4F76AE0C7010E94B2066DE0C7010E9465
:100DC000B206DF91CF911F910F91FF90EF90DF90CE
:100DD000CF9008955058BB27AA270ED075C166D171
:100DE00030F06BD120F031F49F3F11F41EF45BC161
:100DF0000EF4E095E7FB51C1E92F77D180F3BA17E4
:100E0000620773078407950718F071F49EF58FC188
:100E10000EF4E0950B2EBA2FA02D0B01B901900115
:100E20000C01CA01A0011124FF27591B99F0593F59
:100E300050F4503E68F11A16F040A22F232F342FA1
:100E40004427585FF3CF469537952795A795F040EF
:100E50005395C9F77EF41F16BA0B620B730B840B04
:100E6000BAF09150A1F0FF0FBB1F661F771F881FBC
:100E7000C2F70EC0BA0F621F731F841F48F4879514
:100E800077956795B795F7959E3F08F0B3CF939503
:100E9000880F08F09927EE0F979587950895D9D078
:100EA00008F481E008950CD00FC107D140F0FED0C6
:100EB00030F021F45F3F19F0F0C0511139C1F3C097
:100EC00014D198F39923C9F35523B1F3951B550B0E
:100ED000BB27AA2762177307840738F09F5F5F4F0D
:100EE000220F331F441FAA1FA9F333D00E2E3AF04E
:100EF000E0E830D091505040E695001CCAF729D068
:100F0000FE2F27D0660F771F881FBB1F26173707B6
:100F10004807AB07B0E809F0BB0B802DBF01FF27E6
:100F200093585F4F2AF09E3F510568F0B6C000C14C
:100F30005F3FECF3983EDCF3869577956795B79520
:100F4000F7959F5FC9F7880F911D9695879597F93B
:100F50000895E1E0660F771F881FBB1F62177307B4
:100F60008407BA0720F0621B730B840BBA0BEE1FC9
:100F700088F7E095089504D06894B111D9C0089518
:100F8000BCD088F09F5790F0B92F9927B751A0F0A7
:100F9000D1F0660F771F881F991F1AF0BA95C9F70D
:100FA00012C0B13081F0C3D0B1E00895C0C0672F46
:100FB000782F8827B85F39F0B93FCCF386957795BD
:100FC0006795B395D9F73EF49095809570956195A6
:100FD0007F4F8F4F9F4F0895E89409C097FB3EF4D1
:100FE00090958095709561957F4F8F4F9F4F992376
:100FF000A9F0F92F96E9BB279395F69587957795F4
:101000006795B795F111F8CFFAF4BB0F11F460FFB3
:101010001BC06F5F7F4F8F4F9F4F16C0882311F00B
:1010200096E911C0772321F09EE8872F762F05C01F
:10103000662371F096E8862F70E060E02AF09A95BA
:10104000660F771F881FDAF7880F9695879597F9AF
:101050000895990F0008550FAA0BE0E8FEEF161649
:101060001706E807F907C0F012161306E407F5079C
:1010700098F0621B730B840B950B39F40A2661F010
:10108000232B242B252B21F408950A2609F4A140B3
:10109000A6958FEF811D811D089597F99F6780E8C0
:1010A00070E060E008959FEF80EC089500240A94BA
:1010B0001616170618060906089500240A94121633
:1010C0001306140605060895092E0394000C11F466
:1010D000882352F0BB0F40F4BF2B11F460FF04C013
:1010E0006F5F7F4F8F4F9F4F089557FD9058440F6C
:1010F000551F59F05F3F71F04795880F97FB991F77
:1011000061F09F3F79F08795089512161306140633
:10111000551FF2CF4695F1DF08C0161617061806C0
:10112000991FF1CF86957105610508940895E8949B
:10113000BB2766277727CB0197F908958ADF08F444
:101140008FEF08950BD0C0CFB1DF28F0B6DF18F0D5
:10115000952309F0A2CFA7CF1124EACFC6DFA0F3D1
:10116000959FD1F3950F50E0551F629FF001729F3C
:10117000BB27F00DB11D639FAA27F00DB11DAA1F5B
:10118000649F6627B00DA11D661F829F2227B00DA8
:10119000A11D621F739FB00DA11D621F839FA00D33
:1011A000611D221F749F3327A00D611D231F849F83
:1011B000600D211D822F762F6A2F11249F575040DA
:1011C0008AF0E1F088234AF0EE0FFF1FBB1F661F75
:1011D000771F881F91505040A9F79E3F510570F02E
:1011E0005CCFA6CF5F3FECF3983EDCF38695779516
:1011F0006795B795F795E7959F5FC1F7FE2B880F29
:10120000911D9695879597F90895052E97FB1EF4E5
:1012100000940E941C0957FD07D00E94480907FC52
:1012200003D04EF40C941C095095409530952195AF
:101230003F4F4F4F5F4F0895909580957095619502
:101240007F4F8F4F9F4F0895EE0FFF1F0590F49132
:10125000E02D09940024A7FD00942A0F301D401DA5
:10126000501D601D701D801D901D08952A193B0999
:101270004C095D096E097F09800B910B08952A15B1
:101280003B054C055D056E057F05800791070895B8
:10129000A1E21A2EAA1BBB1BFD010DC0AA1FBB1F7A
:1012A000EE1FFF1FA217B307E407F50720F0A21BEC
:1012B000B30BE40BF50B661F771F881F991F1A9459
:1012C00069F760957095809590959B01AC01BD0183
:1012D000CF010895EF920F931F93CF93DF93E8010F
:1012E00047FF02C034E101C034E0E42FFF27E7FDEF
:1012F000F095F7FF03C0F195E195F109E32E022F78
:101300002E2FAE010E948B09CE01DF91CF911F914C
:101310000F91EF9008956F927F929F92AF92BF923C
:10132000CF92DF92EF92FF920F931F93CF93DF93B1
:10133000CDB7DEB729970FB6F894DEBF0FBECDBF8D
:101340006A01B22E102F0C3320F4FF24F394F00E18
:1013500002C04CE3F42E0F2D27E0AE014F5F5F4F2C
:101360000E94090B7981272F2970213031F0E1FC8F
:1013700006C0E0FC06C060E005C06DE203C06BE2A1
:1013800001C060E2AE2DA07173FF36C0662311F07C
:1013900084E001C083E08B1510F4B81A01C0B12CB1
:1013A000A1110BC0F6018B2D90E2882319F09193C7
:1013B0008150FBCFCB0CD11CB12C662331F0F60150
:1013C000608396012F5F3F4F6901C6010396E2FEDD
:1013D00005C02EE4F601208331E404C02EE6F601B8
:1013E000208331E631832283FC012B2D30E222233E
:1013F000F1F131932150FBCF72FF40C0662311F011
:1014000084E001C083E08B1510F4B81A01C0B12C40
:10141000A1110BC0F6018B2D90E2882319F0919356
:101420008150FBCFCB0CD11CB12C662331F0F601DF
:10143000608396012F5F3F4F6901C6010396E2FE6C
:1014400007C029E4F60120832EE4218326E406C0A8
:1014500029E6F60120832EE6218326E62283FC017D
:101460002B2D30E2222319F031932150FBCFFC01C8
:10147000EB0DF11D10828EEF9FEFB7C0B1E061114F
:1014800001C0B0E04B2F50E01816190624F49C015F
:101490002F5F3F4F02C021E030E0240F351F1123A2
:1014A00029F0412F50E04F5F5F4F02C040E050E015
:1014B000420F531F2B2D30E04217530714F4B41A78
:1014C00001C0B12C2E2D287159F4F6012B2D30E2DC
:1014D000222319F031932150FBCFCB0CD11CB12C1E
:1014E000BB2331F0F601608396012F5F3F4F690106
:1014F000A1110BC0F6012B2D30E3222319F03193FB
:101500002150FBCFCB0CD11CB12CF80E0A81372F08
:101510003071A32E74FF03C0013309F4FA941F1431
:101520002CF42F2D293018F028E001C021E0682F7D
:10153000392F97FF02C060E030E0462F532F612C17
:10154000712C3EE2932EBC01621B71099B01DC01F0
:10155000A41BB50BE1E0F0E0EC0FFD1FAE0FBF1FC9
:10156000E12EF12CF194E194F1084F3FFFEF5F077A
:1015700031F4F6019082B6016F5F7F4F6B018417E3
:1015800095074CF02417350734F4BD01660D771D1F
:10159000FB01118101C010E341505109FFEF6F1AA7
:1015A0007F0AB6016F5F7F4F4E155F0524F0F6018D
:1015B00010836B01DACF4817590739F4063320F44A
:1015C000053319F4A11001C011E3F6011083FB01EA
:1015D0008B2D90E2882319F091938150FBCFFB0172
:1015E000EB0DF11D108280E090E029960FB6F89483
:1015F000DEBF0FBECDBFDF91CF911F910F91FF9046
:10160000EF90DF90CF90BF90AF909F907F906F90C2
:101610000895283008F027E03327DA01990F311DAB
:1016200087FD916000966105710539F432602E5F87
:101630003D9330E32A95E1F708959F3F30F08038DD
:101640007105610509F03C5F3C5F3D93913008F006
:101650008068911DDF93CF931F930F93FF92EF92BA
:10166000192F987F9695E92F96959695E90FFF2764
:10167000EE53FF4F99273327EE24FF24A701E701FC
:1016800005900894079428F4360FE71EF81E491FAA
:10169000511D660F771F881F991F0694A1F70590AB
:1016A000079428F4E70EF81E491F561FC11D770F37
:1016B000881F991F661F0694A1F70590079428F4C8
:1016C000F80E491F561FC71FD11D880F991F661F8F
:1016D000771F0694A1F70590079420F4490F561F31
:1016E000C71FD81F990F661F771F881F0694A9F779
:1016F00084911095177041F0D695C79557954795E9
:10170000F794E7941A95C1F7E8E6F0E0689415902D
:10171000159135916591959105907FE27395E1184A
:10172000F10A430B560BC90BD009C0F7E10CF11EAF
:10173000431F561FC91FD01D7EF4703311F48A95C4
:10174000E6CFE894015030F0080F0AF400270217A2
:1017500008F4202F2395022F7A3328F079E37D9324
:101760002A95E9F710C07D932A9589F606949795F6
:101770006795379517951794E118F10A430B560BA7
:10178000C90BD00998F023957E9173957A3308F0B0
:1017900070E37C932013B8F77E9170617D9330F0F5
:1017A000839571E37D9370E32A95E1F71124EF901F
:1017B000FF900F911F91CF91DF91992787FD909511
:0617C0000895F894FFCF2C
:1017C600F38EB940D34DC6403F57CF4014D0BE40EC
:1017D6009B55BF4011C7AA40E3C78040A913584094
:1017E60032555040F38EDB3FCC5DDB40AC8B034182
:1017F600AC1CEC40910FDC4002BC0A4158A8BF402B
:101806008126F2403108BA40105871401A51A4405E
:10181600713DA040D578EB40F9310B41ACAD0741A5
:10182600CE1910417AA526414D8487415EBA3B41C7
:10183600470307C14E6210C1B00316C1D6560DC18B
:10184600CF660DC1D34D04C1226CE8C03F35DAC066
:10185600BF7DD7C041F1B9C07B140AC1696F15C1FC
:10186600A1F80EC134110BC19CC417C1D95F06C1C2
:10187600E02D10C18FC205C1BC96F4C0EBE201C1D8
:101886006E3401C130BB0CC18A1F13C16F1212C165
:10189600C74B14C14F401AC1B00336C13F5720C1D0
:1018A60000000000DF4F4D3F2DB26D3F3D0A873FE0
:1018B600DBF9963F17D9A63FC74BB73F8B6CC73F9F
:1018C600C74BD73F14AEE73F022BF73F0C0203404E
:1018D6001F850B401F8513401F851B400AD72340D9
:1018E60048E12A400AD733401F853B401F854340C5
:1018F6001F854B400AD753401F855B400AD763407C
:101906001F856B403333734033337B408FC2814036
:10191600FCFF0400576970657220563A004D6F64EB
:101926006520413A2057202B206F722053202D002E
:101936004D6F646520423A20496E7075742074615B
:101946007267657420766F6C746167653A20302E15
:1019560038302D342E323000526573657420746F22
:10196600203020644200496E70757420746172677D
:1019760065742064423A20302E302D282D32382EC0
:1019860035290057656C636F6D65003D3D3D3D3DF6
:101996003D3D3D3D204D656E75203D3D3D3D3D3D0A
:1019A6003D3D3D00412E20537465702062792073C1
:1019B6007465703A20572B20616E6420532D2E00DB
:1019C600522E20526573657400542E20546172673E
:1019D600657420644200526573657420646F776E87
:0219E6002100DE
:00000001FF
